:200000007EA0097EA02F7EA02110FF030010CE02FF3476108E0302BDA798357610FE030037
:20002000393474108E0302BDA3CE1F983574393476108E03021F894FEDA4BDA271357639EC
:200040008611B7FFD886FFB70422B70822B70C22B71022B71422B71822B71C22B720223965
:200060008613B7FFD886FFB70426B70826B70C26B71026B71426B71826B71C26B720263923
:200080003416AE66A669A7843516393410AE64E6841D3510393410AE64AD8435103934367A
:2000A000A6E4E6633DE764EC613DE765A661E6633DAB64AB653266398C00002B08270E4757
:2000C00056301F20F827065849300120F839CCA0D2393F2831851F06191C830E6E0F040013
:2000E000344033E4327C8DE6ED5E4F5FED5CEC5C83000E2C2DEC5C3406CCFFC634068D8086
:200100003264E6D8FE1D3406CCFFC7340617FF703264EC5EC30001ED5EEC5CC30001ED5CA0
:2001200020CC4F5FED2EEC2E3406CCFFD0340617FF4E3264CC00083406CCFFD6340617FFE8
:200140003F3264CC0007ED224F5FED244F5FED2635D6344033E4327CEC223406CCFFD83405
:200160000617FF1C3264CC00283406EC26351017FF2C3406EC24C30400E3E1ED5CEC2E842E
:2001800000C440830000262D4F5FED5EEC5E8300082C20ECA43406EC5C340617FEE2326492
:2001A000EC5CC30400ED5CEC5EC30001ED5E83000120D9200DECA43406EC5C340617FEC0C3
:2001C000326435D6344033E43276CC0001ED5EEC5E83001A102C00824F5FED5CEC5C8300CC
:2001E000282C6ACC00283406EC5E351017FEAF3406EC5CC30400E3E1ED584F5FED5AEC5A33
:200200008300082C3CEC5E830019270DEC58340617FE783262EDA42005CC0020EDA4ECA46F
:200220003406EC58830028340617FE543264EC58C30400ED58EC5AC30001ED5A8300012017
:20024000BDEC5CC30001ED5C830001208FEC5EC30001ED5E83000116FF754F5FED24CC0067
:2002600018ED26EC2CC30001ED2C83000132C435C0344033E4327AEC28835AA5270817FEDE
:200280005FCC5AA5ED28ECA483001F2F0F17FEC2EC24C30001ED248300012012ECA483002A
:2002A0000D260B4F5FED24EC26C30001ED26EC248300272F0E4F5FED24EC26C30001ED26B9
:2002C000830001EC268300182F0317FEF7CC00283406EC26351017FDC53406EC24C3040040
:2002E000E3E1ED5ACC000E3406CCFFC6340617FD8F3264CC00083406EC5A351017FDB93441
:2003000006CCFFC7340617FD773264CC000F3406CCFFC6340617FD683264EC5A8400C4FF6B
:200320003406CCFFC7340617FD56326432C435C0344033E4327E4F5FED5EEC5EAE44E68BEB
:200340001D8300002716EC5EC30001ED5E830001AE44E68B1DEDA417FF1720DE35C6344038
:2003600033E4EC4483000A2C09EC44C30030EDA42007EC44C30037EDA417FEF535C034406B
:2003800033E4EC448400C4FFED44CC00043406EC44351017FD2234068DC43262EC44840016
:2003A000C40F34068DB8326235C0344033E4CC00083406EC44351017FCFE34068DC0326228
:2003C000EC448400C4FF34068DB4326235C0344033E4327C4F5FED5EEC5E8300002707EC89
:2003E0005E83007F2F0ECCFFE0340617FC9D3262ED5E20E4EC5E8300002712EC5EED5CCC83
:20040000FFE0340617FC843262ED5E20E7EC5C32C435C0344033E4327C4F5FED5E4F5FED46
:200420005CEC5E83005327068DA4ED5E20F3EC5CAE44308BEC5EE784EC5CC30001ED5C8302
:200440000001EC5E8300202F1A8D83ED5EEC5CAE44308BEC5EE784EC5CC30001ED5C830088
:200460000120DFEC5CAE44308B4F5FE784EC5C83000132C435C0344033E4EC4483003A2C13
:2004800007EC4483003035C0EC4483003735C0344033E4EC4634068DDD32623406CC001093
:2004A0003406EC4434068DCE3262351017FBEFE3E135C0344033E432E8EECC0007ED224FE6
:2004C0005FED24CC000AED26308C0220125761697420466F7220532D466F726D61740034BA
:2004E0001017FE4C326230A810341017FF253262ED5ECC0007ED224F5FED24CC000DED2624
:2005000030A810341017FE283262EC5E830009102F019AE6A8131D3406E6A8121D34061728
:20052000FF6D3264ED5CE6A8151D3406E6A8141D340617FF5A3264ED5AE6A8171D3406E64E
:20054000A8161D340617FF473264ED58EC5AE35CE358ED50CC01003406EC5A351017FB3E6F
:20056000E358ED5ACC0005ED24CC000CED26EC5A340617FE353262EC24C30001ED24830066
:2005800001EC5C340617FDF63262E6A8111DEDC8EEEC24C30001ED24830001ECC8EEEDA43F
:2005A00017FCCEECC8EE830031102600B8CC0008ED544F5FED56EC5C8300033406EC56A323
:2005C000E12C4EEC54C3000130A810E68B1D3406EC5430A810E68B1D340617FEB23264EDD2
:2005E00052EC523406EC5A340617FA943264EC52E350ED50EC54C30002ED54EC5AC3000178
:20060000ED5A830001EC56C30001ED5683000120A5EC54C3000130A810E68B1D3406EC5489
:2006200030A810E68B1D340617FE643264E3508400C4FFED50EC508300FF2727CC0002ED7D
:2006400022EC24C30001ED24830001308C02200A736C73756D2E45525200341017FCD13282
:2006600062204D2048ECC8EE8300312740EC24C30001ED24830001308C0220054558454315
:2006800000341017FCAA3262EC24C30001ED24830001EC5A340617FD113262EC5A8300005A
:2006A0002709EC5A340617F9EC3262200316FE3632C435C0344033E4327ECC0007ED22CCB9
:2006C000FFD0340617F9C43262ED2E4F5FED244F5FED26308C0220224849544143484920F4
:2006E0004C4556454C2D3320442E524F4D2076657273696F6E20302E3100341017FC313213
:20070000624F5FED24CC0002ED26308C022020436F70797269676874202863292032303199
:2007200039204279204869726F6D6963686900341017FBFC32624F5FED24CC0004ED263031
:200740008C022012323137343220427974657320467265653F00341017FBD53262EC2E8474
:2007600000C4408300002618308C02200A202048692E4D6F646500341017FBB43262201654
:20078000308C02200A20204C6F2E6D6F646500341017FB9C326235C6344033E417FF151755
:0507A000FD1135C03918
:204000007EA0068D0327F939B6FFC485012706B6FFC5847F394F397EA0038D243402810D93
:20402000270BB7FFC50C799679917825100F798D0F860DB7FFC58D08860AB7FFC5350239BF
:204040003402B6FFC4850227F935023910CE01EE966E8156260A9E6FA684811226026E84DE
:204060008E50016F83300126FA8E50006F809F19A60243A702A10226063001630120F19FF1
:20408000719F279F233089FF389F211F148EE0D4CE0076C612BDE1B4CE00A7C604BDE1B403
:2040A000863997F0BDE4C08E00B59F8DCEEBD4C60AEF815A26FB8695B7FFC48EE109BDF0E8
:2040C000E88EE0CC9F6F8655976E200412BDE4DA7EE4283B1040FF00EBD40C8426020C8305
:2040E000B600007EE1C57EE1C47EE0D37EEBD4804FC7525932E223E3301DE2C3E1D4000053
:20410000000000000000000000003638303920455854454E4445442042415349430D28435D
:20412000292031393832204259204D4943524F534F46540D0D0034169E76DC789F6AD76CB9
:20414000976D35960F738E00F4C601BDE000810826075A27EF301F20348115260A5A27E434
:204160008608BDE01720F681031A012705810D260D4F3401BDF0A86F848E00F335818120B7
:2041800025C9817B24C5C1FA24C1A7805CBDE01720B92705BDEEC79F7A6E9F007A7EE5A952
:2041A00096732603BDE0080F73975310260C6A97567EEE25A680A7C05A26F939399D8227D4
:2041C000FB7EEA063B813A240A812026020E7C803080D039F3C6F43AF3DF00ADF66BF6C049
:2041E000EEDAEE0BEC87EEA0EE2AEE16F770F738F741F8B2F8E4F806FA6CF840FF3EEE3591
:20420000EE52EE59E1A0EC78FA74FB34FB0479F11179F1087BF2187BF2DD7FF84950EA5F81
:2042200046EA5E464FD247CF5245CDA7454C53C549C6444154C15052494ED44FCE494E5005
:2042400055D4454EC44E4558D44449CD524541C45255CE524553544F52C55245545552CEB0
:2042600053544FD0504F4BC5434F4ED44C4953D4434C4541D24E45D7455845C354524FCEA0
:2042800054524F46C64445CC4445C64C494EC552454E55CD454449D4544142A854CF5355DA
:2042A000C2544845CE4E4FD4535445D04F46C6ABADAAAFDE414EC44FD2BEBDBC46CE55530F
:2042C000494EC75347CE494ED44142D35553D2524EC45349CE504545CB4C45CE535452A46E
:2042E0005641CC4153C3434852A44154CE434FD35441CE4558D04649D84C4FC7504FD3535D
:2043000051D2484558A44C454654A45249474854A44D4944A4494E4B4559A44D45CD564168
:20432000525054D2494E5354D2535452494E47A4E4EEE639E696E696E696E6C7E693F0703F
:20434000E6F5E7A2E5C0E887EAD8E7DCE62EE5A2E673E5C4EEE1E5E9EEE8E5FAE4BEE1925C
:20436000FA67FA68FCE3FC27FF82FD6DF8F34E46534E52474F4446434F564F4D554C425341
:2043800044442F304944544D4F534C535354434E4644414F444E494F464D4E4F49454453F6
:2043A00055464E45204552524F520020494E20000D4F4B0D000D425245414B003064C612BC
:2043C0009F0FA68480802615AE019F119E3B27099C1127099E0F3A20E59E119F3B9E0F4D16
:2043E000398D17DE4133419E433001A68236029C4726F8DF45394F58D31FC3003A250810AA
:20440000DF1710931725EEC60CBDE4DABDF0ACBDF0FB8EE36E3A8D318D2F8EE3A3BDF0E84F
:2044200096684C2703BDF511BDF0AC8EE3B0BDF0E8BDE144CEFFFFDF6825F69F839D7C27C4
:20444000F0250BBDEF9D7EE577A6807EF0FDBDE71A9E2B9FF1BDEF9DD7038D4C2512DC471B
:20446000A384D31BDD1BEE843702A7809C1B26F896F3271CDC1BDD43DB038900DD41BDE380
:20448000E1CE00EF3702A7809C4526F89E419F1B8D368D02209B9E19EC8427213304A6C06D
:2044A00026FCEF84AE8420F0DC2B9E19EE84270910A3022306AE8420F31A019F473926FB47
:2044C0009E196F806F809F1B9E19BDE66E9E279F23BDE5A29E1B9F1D9F1F8E00C99F0BAE18
:2044E000E410DE216FE20F2D0F2E0F086E8486809708BDE73CBDE3BC326226049E0F3285F3
:20450000C609BDE3F6BDE69BDC683416C6A0BDE9FEBDE8D2BDE8D0D654CA7FD450D75010A6
:204520008EE5267EE9798EF211BDF3609D8281A426059D7CBDE8D0BDF3B9BDE975DC3B3495
:2045400006868034021CAF8D609E839F2FA6802707813A27227EEA06A68197002772EC80E9
:20456000DD689F83968C270F865BBDE0179668BDF518865DBDE0179D7C8D0220C827294D5B
:20458000102A01B881FF270F819E22C9BEE0F7481F893A9D7C6E949D7C8197102714ED7EA7
:2045A000EA069E19301F9F3339BDE008270A8103271281132703977339BDE00827FB20EE91
:2045C0009D8220021A0126319E839F2F060032629E688CFFFF27069F299E2F9F2D8EE3B45C
:2045E0000D00102AFE427EE41D260EC6209E2D1027FE169F839E299F6839272CBDEB7034BD
:20460000069E279D82270CBDE9FCBDEEC7301F9C7122181F10A3E125121F0383003A250BDA
:20462000931B2507DF219F277EE4CD7EE4079D821027FE94BDE4CD20191F899D7CC1A0276A
:2046400016C1A12645C603BDE3F6DE839E6886A134528D037EE5459D82BDE71A8D403001F1
:20466000DC2B10936822029E19BDE4AC2517301F9F833926FD86FF973BBDE3BC1F1481216F
:20468000270BC6048CC60E7EE4097EEA0635529F68DF838D068C8D069F8339C63A865FD72C
:2046A000015F9E831F98D6019701A68427EC3404A1E027E63001812227EA4C260230018145
:2046C0008626E70C0420E3BDE8D09D8281812705C6A2BDE9FE964F26130F048DB64D27BAC4
:2046E0009D7C818426F50A042AF19D7C9D821025FF657EE57DBDEE95C681BDE9FE340281C5
:20470000A1270481A026830A53260535047EE63B9D7C8D06812C27EF35849E749F2B24611A
:2047200080309701DC2B811822DB58495849D32B5849DB018900DD2B9D7C20E2BDEAE19F04
:204740003BC6AEBDE9FE96063402BDE8E5350246BDE8D710270C289E52DC2110A30224116F
:204760009C1B250DE684BDEC979E4DBDEDCD8E00569F4DBDEDFFDE4D9E3B3726A78410AF80
:2047800002393F5245444F0D007EE409960927079E319F687EEA068EE781BDF0E89E2F9FF5
:2047A0008339C6169E68300127DF8D01398122260BBDE9D3C63BBDE9FEBDF0EB8E00F36FE3
:2047C000848D06C62CE7842016BDF0FBBDF0F8BDE144240532647EE5CCC62E399E33864F3F
:2047E00097099F35BDEAE19F3B9E839F2B9E35A684260996092651BDF0FB8DCD9F839D7C79
:20480000D60627239E8397018122270E301F4F9701BDE136863A9701862C9702BDECA8BD26
:20482000E9D8BDE7572006BDF45EBDF37F9D822706812C1026FF529E839F359E2B9F839D5B
:20484000822721BDE9FC209C9F83BDE69B30014D260AC606EE812741EC81DD31A6848186D3
:2048600026E620989E35D6091026FD3AA68427068EE8767EF0E8393F455854524120494710
:204880004E4F5245440D0026049E742003BDEAE19F3BBDE3BC2704C60020471F143003BDFB
:2048A000F360A66897549E3BBDF10EBDF37F3069BDF3E2E068270CAE6E9F68AEE8109F8357
:2048C0007EE54532E8129D82812C26F49D7C8DBD8D131CFE7D1A010D0625032A998C2B961E
:2048E000C6187EE4098D6E4F8C34043402C601BDE3F6BDE9B20F3F9D8280AD2513810324FC
:204900000F810149983F913F2564973F9D7C20E9D63F26331024006B8B0724679906102795
:20492000047789FF340248ABE08EE20E30863502A18424558D9C34028D299E3D3502261DF8
:204940004D1027006A204B0806598D098EE95AD73F0F0620D99E837EE66E64EA7EA1842404
:204960003120D3EC0134068D08D63F16FF7B7EEA06D654A68435203404D64F9E50DE5234EC
:20498000546EA49E74A6E0272681642703BDE8D29F3D3504815A2719817D271554D70A3572
:2049A00052975C9F5DDF5F3504D761D854D762D64F39BDFBFC0F069D7C24037EF45EBDEBC3
:2049C0002C2450812E27F481A7274081A627E38122260A9E83BDECA29E649F833981A326C7
:2049E0000D865ABDE8E9BDEB7743537EEC7E4C272E8D06BDE8E5C6298CC6288CC62CE19F7A
:204A0000008326020E7CC6027EE409867DBDE8E97EF635BDEAE19F52960626957EF3609DB6
:204A20007C1F89589D7CC13823037EEA063404C12A251EC130241C8DC0A6E4BDE8E58DBC13
:204A4000BDE8D53502DE523442BDEE95350234068E8D9E3504BEE0FC3AAD947EE8D2864F3A
:204A60009703BDEB77DD01BDF396BDEB770D0326069401D40220049A01DA027EEC7EBDE86B
:204A8000D7261096618A7F945D975D8E005CBDF3E220360F060A3FBDEDE1D7569F589E5F48
:204AA000BDEDE396563404A0E0270786012403D656409754DE585C5A2604D654200BA68001
:204AC000A1C027F3C6FF240150CB0159D40A2702C6FF7EF3C8BDE9FCC6018D089D8226F5BF
:204AE000395F9D82D70597379D828D401025FF165FD7069D7C25048D33250A1F899D7C25CC
:204B0000FC8D2924F8812426060306CB809D7CD7389A088028102700750F089E1BDC379C05
:204B20001D271210A381273E300520F381412504805B80A5398E0074EEE41183EA16272863
:204B4000DC1FDD43C30007DD419E1D9F47BDE3E19E419F1F9E459F1D9E47DC37ED814F5FE0
:204B6000ED84ED02A7049F393990800000009D7CBDE8D096542B5DBDE8D2964F819025086F
:204B80008EEB69BDF3E2264CBDF414DC5239DC053406125F9E3734148DD435349F37DE528A
:204BA00034605C9D82812C27EBD703BDE9F63506DD059E1D9C1F2721DC3710A3842706EC73
:204BC00002308B20EFC6129605260BD603E1042759C6108CC6087EE409CC0005DD64DC3767
:204BE000ED84D603E704BDE3F69F41C60B4F0D0527053506C30001ED058D5DDD6430020A54
:204C00000326E89F0FD30F1025F7FC1F01BDE3FA830035DD1F4F301FA7059C0F26F89E416B
:204C2000961F9341ED029605262DE604D7034F5FDD643506DD5210A305243ADE6427048DE1
:204C400017D35230020A0326E7EDE358495849E3E1308B30059F393986109745EC05DD179E
:204C60004F5F5849250F086509642404D31725050A4526EE397EEBD11F40931F214F0F062F
:204C8000DD50C6907EF3CEBDE8D2CE01F0BDF52832628E01EF200B9F4D8D5C9F58D75639D3
:204CA000301F86229701970230019F629F58C6FF5CA680270C91012704910226F3812227F6
:204CC00002301F9F64D756DE62118301F022078DC69E62BDEDCF9E0B8C00F12605C61E7EE6
:204CE000E4099656A700DC58ED0286FF97069F0D9F5230059F0B390F074F3406DC23A3E019
:204D0000109321250ADD239E2330019F253584C61A030727CA8D04350420DE9E279F234FB8
:204D20005FDD4B9E219F478E00C99C0B27048D3220F89E1B9C1D27048D2220F89F419E4124
:204D40009C1F2735EC02D341DD41A6012AF0E60458CB053A9C4127E88D0820F8A60130029D
:204D60002A14E6842710EC02109323220910934723049F4BDD473005399E4B27FB4FE68424
:204D80005AD347DD439E239F41BDE3E39E4BDC45ED029E45301F7EED1DDC523406BDE9B2E8
:204DA000BDE8D535109F62E6849E52EB842405C61C7EE409BDEC979E62E6848D109E4D8D35
:204DC000228D0C9E628D1CBDECD67EE8F7AE02DE255C2004A680A7C05A26F9DF2539BDE878
:204DE000D59E52E6848D182613AE07301F9C2326083404D323DD233504300139AE02399C5F
:204E00000D26079F0B301B9F0D4F398D037EEC7D8DCC0F065D39BDEE98C601BDECF7965321
:204E2000BDEC9BA78432627EECD68D0220DF8DE0275EE684398D484FE1842303E6844F3470
:204E400006BDEC999E4D8D9B35043A3504BDEDCF20D58D2BA0844020DFC6FFD7539D828133
:204E6000292705BDE9FC8D2D8D1527245F4AA18424CD1F89E08450D15323C4D65320C0BDA8
:204E8000E9F6EEE4AE659F4DA664E66432671F357EEBD49D7CBDE8D0BDEB734D26F20E8246
:204EA000BDEE10102702DEDE839F833AA68434526F849D82BDF45E3552A784DF83398D07B1
:204EC0009F2BBDE9FC20CEBDE8D096542BC2964F819022BCBDF4149E52398DEEE6847EEC1B
:204EE0007D8DDB9E2BE784393401BDE71ABDE4A89F66350127129D82271381A726099D7CE7
:204F00002706BDE71A270639CEFFFFDF2B32629E66BDF0ACBDE19DEC8426037EE4289F6616
:204F2000EC0210932B22F4BDF518BDF0F89E668D10AE9F0066CE00F4A6C027D5BDF0FD20EE
:204F4000F73004108E00F4A68027512B15813A260DE684C18427F0C18327EC8C86218D30BB
:204F600020E5CEE0EA81FF2604A6803345847F334A6DC427E7A0C42AF6ABC4EE414A2B06F0
:204F80006DC02AFC20F7A6C48D066DC02AF820B7108C01ED2406847FA7A06FA4399E83CE4B
:204FA00000F30F430F44A68027210D43270FBDEB2C241881302504813923100F4381202774
:204FC0000A9742812227380D442719A7C02706813A27CF20D16FC06FC01F308300F18E0076
:204FE000F29F8339813F2604868720DF81272613CC3A83EDC10F42A68027D0914227CCA77B
:20500000C020F481302504813C25C0301F34500F41CEE0EA0F42334AA6C4273110AE41AE48
:20502000E4E6A0E08027FAC180263832623540DA4296412606C1842606863AEDC12094E744
:20504000C0C18626020C44C18227AA2086CEE0EF034126C03550A680A7C0BDEB2C25EC0356
:205060004320E80C424A27AE313FE6A02AFC20AF27368D0139273E819F2753812C273781DE
:205080003B2760BDE8E5960634022606BDF525BDECA08D573504BDE1365D26089D82812C5E
:2050A00027148D549D8226CF860D2051BDE13627F7966C26F339BDE136270AD66CD16B25CE
:2050C000068DE5201ED66CD06A24FC502010BDEE9381291026F92FBDE136D06C23058D18DB
:2050E0005A26FB9D7C7EF075BDECA2BDEDE15C5A27C3A6808D0720F786208C863F7EE01786
:205100008EF60C2009BDF27B035403622003BDF27B5D102702808E005C1F895D276CD04FEC
:205120002769250A974F966197548E004F50C1F82F594F6401BDF206D6622A0B63016302DB
:205140006303630443890097639653996097539652995F97529651995E97519650995D97EE
:20516000505D2A4425028D5D5F9650262E965197509652975196539752966397530F63CBDA
:2051800008C1282DE44F974F9754398D6D5F20A85C086309530952095109502AF3964F342C
:2051A00004A0E0974F23DE8C2508086386009763200C0C4F27280650065106520653240484
:2051C0008D0D27EE39035403500351035203539E5230019F5226069E5030019F5039C60AE9
:2051E0007EE4098E0012A6049763A603A704A602A703A601A702965BA701CB082FE896638E
:20520000C008270C6701660266036604465C26F43981000000008D6327608D7886009713CE
:20522000971497159716D6538D22D663D78BD6528D1AD663D78AD6518D12D663D789D65009
:205240008D0CD663D788BDF3577EF1682795439613562726241696169B6097169615995FC3
:2052600097159614995E97149613995D46971306140615061606634F20D539EC0197618A01
:2052800080DD5DD661D854D762EC03DD5FA684975CD64F394D27169B4F464928108B809735
:2052A0004F270C966297543996544320023262102AFED27EF1DEBDF3AB270D8B0225F40FD2
:2052C00062BDF1190C4F27EB398420000000BDF3AB8EF2C95FD762BDF3608C8D9E277300BE
:2052E0004F8DB10C4F27CC8E0013C604D703C6019650915D26139651915E260D9652915FD9
:205300002607965391602601431FA859240AE7800A032B34272EC6011F8A250E0860095F33
:20532000095E095D25E32BC820DF966090539760965F9252975F965E9251975E965D925066
:20534000975D20D8C64020D0565656D7638D087EF168C6147EE4099E139F509E159F523901
:205360003402EC0197548A80DD500F63E684AE039F52D74F35828E004520068E00408C9E9C
:205380003B964FA78496548A7F9450A7019651A702DE52EF0339966197549E5C9F4F0F631C
:2053A000965E975196549E5F9F5239DC4FDD5C9E519F5E9E539F604D39D64F2708D6545963
:2053C000C6FF250150398DF1D7500F51C68896508080D74FDC74DD52976397547EF1640FB4
:2053E0005439E68427D3E601D8542BD1D64FE184261DE601CA7FD450E1012613D651E10267
:20540000260DD652E1032607D653E00426013956D85420ABD64F273DC0A096542A05035B06
:20542000BDF1C78E004FC1F82E06BDF1FA0F5B390F5B96544906507EF206D64FC1A0241DB2
:205440008DD2D7639654D754808086A0974F965397017EF164D750D751D752D753399E7451
:205460009F549F4F9F519F529F479F452564BDFB9B812D260403552004812B26049D7C255C
:2054800051812E2728814526289D7C256481A7270E812D270A81A62708812B270420060375
:2054A000489D7C254C0D48270800472004034626CC96479045974727122A09BDF2CE0C4724
:2054C00026F92007BDF2B60A4726F996552A8E7EF635D645D046D7453402BDF2B63504C084
:2054E000308D022098BDF37BBDF3C88E00407EF10ED6475858DB475880303404ABE09747AF
:20550000209F9B3EBC1FFD9E6E6B27FD9E6E6B28008EE3AA8D0CDC68DD50C69043BDF3D2A1
:205520008D037EF0E8CE01F18620D6542A02862DA7C0DF6497548630D64F102700C64FC199
:205540008022088EF50CBDF21686F797458EF507BDF3EC2E0F8EF502BDF3EC2E0EBDF2B6CF
:205560000A4520F1BDF2CE0C4520E2BDF100BDF414C60196458B0A2B09810B24054A1F8976
:2055800086024A4A9747D7452E0DDE64862EA7C05D27048630A7C08EF611C6809653AB0346
:2055A00097539652A90297529651A90197519650A98497505C565928E32403C00B50CB2FC0
:2055C00030041F98847FA7C00A452604862EA7C053C4808CF63526C4A6C2813027FA812EC1
:2055E0002602335F862BD647271C2A03862D50A7428645A741862F4CC00A24FBCB3AED43F5
:205600006F452004A7C46F418E01F1398000000000FA0A1F0000989680FFF0BDC00001869A
:20562000A0FFFFD8F0000003E8FFFFFF9C0000000AFFFFFFFF964F27020354399F64BDF329
:205640007B8D058D088E00407EF2169F64BDF3769E64E680D7559F648DEE9E6430059F64DF
:20566000BDF10E8E00450A5526EE39BDF3B92B1F27158D10BDF37B8D0E8E00408DCA8EF2F8
:2056800011BDF10E7EF43A9EB19F509EB39F52BEF6BC9F5DBEF6BE9F5FBDF21CDC8AC365DC
:2056A0008BDDB3DD52DC88C9B08905DDB1DD500F548680974F961597637EF16840E64DAB91
:2056C000BDF3AB8EF705D661BDF2D5BDF3AB8DB40F62965CD64FBDF1088EF70ABDF1059678
:2056E0005434022A09BDF10096542B05030ABDF6358EF70ABDF10E35024D2A03BDF6358EBE
:20570000F70F7EF63C83490FDAA27F000000000584E61A2D1B862807FBF8879968890187EB
:205720002335DFE186A55DE72883490FDAA2A154468F138F524389CD8EF76BBDF10E7EF6EC
:20574000C0BDF37B0F0A8DF68E004ABDF3818E0040BDF3600F54960A8D0C0D4F1027FA7E34
:205760008E004A7EF2DB34027EF6EE81490FDAA2965434022A028D24964F340281812505D5
:205780008EF2118DDE8EF7A0BDF63C3502818125068EF76BBDF10535024D2A037EF635395F
:2057A0000B76B383BDD3791EF4A6F57B83FCB0107C0C1F67CA7CDE53CBC17D1464704C7D83
:2057C000B7EA517A7D6330887E7E9244993A7E4CCC91C77FAAAAAA138100000000037F5E41
:2057E00056CB7980139B0B6480763893168238AA3B20803504F334813504F334808000001B
:205800000080317217F8BDF3B9102FF3C78EF7F2964F808034028680974FBDF10E8EF7F73E
:20582000BDF2DB8EF211BDF1058EF7DDBDF63C8EF7FCBDF10E3504BDF4E58EF8017EF21630
:20584000BDF3AB8EF60CBDF36027674D26037EF1868E004ABDF3815F96612A10BDF43A8E42
:20586000004A9661BDF3EC260343D601BDF3983404BDF8068E004ABDF2168D3635024610E0
:2058800025FDB2398138AA3B29077134583E5674167EB31B772FEEE3857A1D841C2A7C638A
:2058A00059580A7E75FDE7C6803172181081000000008EF884BDF216BDF37B964F818825B7
:2058C000037EF2A8BDF43A96018B8127F44A34028E0040BDF1058EF889BDF64B0F6235024E
:2058E000BDF29439BDF3B92B037EF43A03548DF97EF635BDFD21326286019798BDE4A810E5
:2059000025ED82BDEF411F208300F5D797DC2BBDF518BDF0F88E00F4D69826255FBDFA47D3
:20592000BDFF79250B80303402860A3DEBE020EDC001C90181412605BDF0A820BB814C26DC
:205940000B8D310F98BDF0A820C33262810D260D8D22BDF0A88E00F49F837EE45181452702
:20596000F181512606BDF0A87EE4288D0220AD812026108CC6F9A6842708BDE01730015A43
:2059800026F439814426486D8427F78D045A26F7390A97311F3121A621A7A426F8398149BB
:2059A00027138158270D8148265C6F841F108300F5D7978DBFBDFA47810D278E811B2725D8
:2059C000810826228C00F427EC8D458DC420E6814326CB6D84270EBDFA47250220F5A780FE
:2059E0008D375A26EE39D697C1F9260220C734106D8026FCE682E701ACE426F83262A780FA
:205A00008D170C9720AF810826128D045A26FB398C00F427D0301F86087EE017814B2705A9
:205A2000805327013934028D1E3402A68427166D6126068DE430012003BDF991A684A1E4FF
:205A400026E95A26E635A0BDE000817F24F9815F2602861B810D270E811B270A8108270653
:205A6000812025E31A0139864F978C398600D6791D7EEC7EBDE9F9DC1F3406BDEAE1BDE91C
:205A8000F635061E109C1F26517EEC7E9D7CBDE9F9BDEAE13410EC02109321230493272353
:205AA00012E684BDECF73410AE62BDEDCD3550AF423440BDEEC234045D271FC6FF81292737
:205AC00003BDEEC23404BDE9F6C6AEBDE9FE8D2E1F13AE62A684A06124037EEBD44CA1E40D
:205AE0002402A7E4A6611E89AE025A3A4D270DA1E42302A6E41F891E31BDE1B43596BDE895
:205B0000E57EEDDEBDE9F9BDEE953404BDE9FCBDE8E5BDE9F696062605BDEE982003BDEEA0
:205B20002E3404E661BDEC9935062705A7805A26FB7EEE25BDE9F9BDE8E5C6013404960618
:205B40002610BDEE98E7E42791BDE9FCBDE8E5BDE8D59E523410BDE9FCBDFAFE3414BDE92A
:205B6000F6AE63BDEDE33404E1662523A661271CE6665A3A3184EE62E661A6E4A0664CA1D7
:205B800061250CA680A1C0260C5A26F7E666215F32677EEC7D6C66302120D98126265C3280
:205BA000620F520F538E00529D7C814F2712814827239D82200C81381022EE4AC6038D2ABD
:205BC0009D7C25F20F500F510F060F630F54C6A0D74F7EF1689D7C250BBDEB2C25E6814799
:205BE00024E28007C6048D0220EB680169841025F5EC5A26F58030AB01A7013935400F060C
:205C00009E839D7C8126279981B0275E81FF26089D7C8183102700AB9F836EC49E683001F5
:205C200026D9C6167EE409AE9F00838CFF83102700748D238DE6BDE9F9C680D708BDEAE126
:205C40008D25BDE9F6C6AEBDE9FE9E4BDC83ED84DC39ED027EE693C6B0BDE9FEC680D708EB
:205C60008A80BDEAE69F4B7EE8D28DEB3410BDE9F18DF43540C632AE4227A9109E83EEC487
:205C8000DF83A6043402EC84EE023476BDF381BDE8D03576ED84EF023502A7049D821026CE
:205CA000ED64109F83399D7C8D0934108D2D3540AFC4395F9D7C240680301F899D7C9E8D1C
:205CC000583A398DEEAE843410BDE9F18E004F96062707BDEDE19E52960639C6AEBDE9FE62
:205CE0007EEEC71027EEEDBDE71ABDE4A89F939D82271081A7263B9D7C27048D24200486A8
:205D0000FF972BDE938CEEC4ECC42706EC42932B23F49E938D15BDE4C89E93BDE4987EE42B
:205D200028BDE71A7EE1BDA6C0A78011931B26F79F1B39BDFC1C9D7C8122260BBDE9D3C604
:205D40003BBDE9FEBDF0EB327EBDE7CF3262BDEAE19F3BBDE8D58E00F34FBDECA67EE7575E
:205D6000BDE71A9E2B399E919F2B7EE4A8BDE4CDCC000ADD95DD8F5FDD919D8224068DE0BB
:205D80009F959D82271BBDE9FC24068DD39F919D82270EBDE9FC24068DC69F8F2749BDE163
:205DA000BD8DC39F939E958DBF9C93253A8D1CBDFE41BDE4968DAF9F938D3A8D0F8D36BD6A
:205DC000FEDCBDE4CDBDE4967EE428864F97989E93DC958D150D982602ED02AE848D0BD319
:205DE0008F250481FA25EE7EEBD43406EC84350626023262399E19301F30018DED30033032
:205E000001A68427F49F0F4A270C4A272A4A26EF8603A78020E7EC016A0227014FE6036A3D
:205E20000427015FED01DD2BBDE4A89E0F25E1DC476C80ED8420C66F84AE01AE029F472027
:205E4000EA9E1920049E8330018D9F300230019F839D7C4D27EF2AF99E8381FF27EF81A201
:205E600027128184270E818126E79D7C81A0270481A126DB9D7C25049D8220D79E8334105B
:205E8000BDE71A9E83A682BDFF7925F930011F10E061C0052720250A3384503085BDFD2B2B
:205EA00020149F479E1B9F435030859F419F1BBDE3E19E459F8335108601A784A702A704BD
:205EC000D62B2604C6016C02E701D62C2604C6016C04E7039D82812C279A209C9E19301FDE
:205EE0003001EC02DD68BDFDEA30033001A68427EF4A271B800226F334108EFF39BDF0E830
:205F0000AEE4EC01BDF518BDF511BDF0A835103410EC01DD52BDFBC4BDF5253540C60530B8
:205F200001A68427055AA7C020F530C45D27BE31C433C5BDFD2B30A420B3554C2000BDEE19
:205F4000CA8E01F0C60434045F860408530952594A26F85D260AA6E44A27058C01F0270C59
:205F6000CB30C1392302CB07E7806F8435045A26D532628E01EF7EECA281302504803A801B
:0B5F8000C63981891027FDAB7EEA06C0
:105FF0000000009B009E00AA00A700A100A4E04CA6
:00000001FF
